{
  "_format": "hh-sol-artifact-1",
  "contractName": "MerkleAirdrop",
  "sourceName": "contracts/MerkleAirdrop.sol",
  "abi": [
    {
      "inputs": [
        {
          "internalType": "address",
          "name": "_token",
          "type": "address"
        },
        {
          "internalType": "bytes32",
          "name": "_merkleRoot",
          "type": "bytes32"
        }
      ],
      "stateMutability": "nonpayable",
      "type": "constructor"
    },
    {
      "anonymous": false,
      "inputs": [
        {
          "indexed": true,
          "internalType": "uint256",
          "name": "index",
          "type": "uint256"
        },
        {
          "indexed": true,
          "internalType": "address",
          "name": "account",
          "type": "address"
        },
        {
          "indexed": false,
          "internalType": "uint256",
          "name": "amount",
          "type": "uint256"
        }
      ],
      "name": "Claimed",
      "type": "event"
    },
    {
      "inputs": [
        {
          "internalType": "uint256",
          "name": "index",
          "type": "uint256"
        },
        {
          "internalType": "address",
          "name": "account",
          "type": "address"
        },
        {
          "internalType": "uint256",
          "name": "amount",
          "type": "uint256"
        },
        {
          "internalType": "bytes32[]",
          "name": "proof",
          "type": "bytes32[]"
        }
      ],
      "name": "claim",
      "outputs": [],
      "stateMutability": "nonpayable",
      "type": "function"
    },
    {
      "inputs": [
        {
          "internalType": "uint256",
          "name": "index",
          "type": "uint256"
        }
      ],
      "name": "isClaimed",
      "outputs": [
        {
          "internalType": "bool",
          "name": "",
          "type": "bool"
        }
      ],
      "stateMutability": "view",
      "type": "function"
    },
    {
      "inputs": [],
      "name": "merkleRoot",
      "outputs": [
        {
          "internalType": "bytes32",
          "name": "",
          "type": "bytes32"
        }
      ],
      "stateMutability": "view",
      "type": "function"
    },
    {
      "inputs": [],
      "name": "token",
      "outputs": [
        {
          "internalType": "address",
          "name": "",
          "type": "address"
        }
      ],
      "stateMutability": "view",
      "type": "function"
    }
  ],
  "bytecode": "0x60c060405234801561001057600080fd5b50604051610c29380380610c298339818101604052810190610032919061010e565b8173ffffffffffffffffffffffffffffffffffffffff1660808173ffffffffffffffffffffffffffffffffffffffff16815250508060a08181525050505061014e565b600080fd5b600073ffffffffffffffffffffffffffffffffffffffff82169050919050565b60006100a58261007a565b9050919050565b6100b58161009a565b81146100c057600080fd5b50565b6000815190506100d2816100ac565b92915050565b6000819050919050565b6100eb816100d8565b81146100f657600080fd5b50565b600081519050610108816100e2565b92915050565b6000806040838503121561012557610124610075565b5b6000610133858286016100c3565b9250506020610144858286016100f9565b9150509250929050565b60805160a051610aa8610181600039600081816101be015261036101526000818161022d01526103da0152610aa86000f3fe608060405234801561001057600080fd5b506004361061004c5760003560e01c80632e7ba6ef146100515780632eb4a7ab1461006d5780639e34070f1461008b578063fc0c546a146100bb575b600080fd5b61006b600480360381019061006691906105f5565b6100d9565b005b61007561035f565b6040516100829190610696565b60405180910390f35b6100a560048036038101906100a091906106b1565b610383565b6040516100b291906106f9565b60405180910390f35b6100c36103d8565b6040516100d09190610723565b60405180910390f35b6100e285610383565b15610122576040517f08c379a00000000000000000000000000000000000000000000000000000000081526004016101199061079b565b60405180910390fd5b6000858585604051602001610139939291906107ca565b6040516020818303038152906040528051906020012060405160200161015f9190610822565b6040516020818303038152906040528051906020012090506101e3838380806020026020016040519081016040528093929190818152602001838360200280828437600081840152601f19601f820116905080830192505050505050507f0000000000000000000000000000000000000000000000000000000000000000836103fc565b610222576040517f08c379a000000000000000000000000000000000000000000000000000000000815260040161021990610889565b60405180910390fd5b61022b86610413565b7f000000000000000000000000000000000000000000000000000000000000000073ffffffffffffffffffffffffffffffffffffffff1663a9059cbb86866040518363ffffffff1660e01b81526004016102869291906108a9565b6020604051808303816000875af11580156102a5573d6000803e3d6000fd5b505050506040513d601f19601f820116820180604052508101906102c991906108fe565b610308576040517f08c379a00000000000000000000000000000000000000000000000000000000081526004016102ff90610977565b60405180910390fd5b8473ffffffffffffffffffffffffffffffffffffffff16867f4ec90e965519d92681267467f775ada5bd214aa92c0dc93d90a5e880ce9ed0268660405161034f9190610997565b60405180910390a3505050505050565b7f000000000000000000000000000000000000000000000000000000000000000081565b6000806101008361039491906109e1565b90506000610100846103a69190610a12565b905060008060008481526020019081526020016000205490506000826001901b90508081831614945050505050919050565b7f000000000000000000000000000000000000000000000000000000000000000081565b6000826104098584610460565b1490509392505050565b60006101008261042391906109e1565b90506000610100836104359190610a12565b9050806001901b60008084815260200190815260200160002060008282541792505081905550505050565b60008082905060005b84518110156104a5576104968286838151811061048957610488610a43565b5b60200260200101516104b0565b91508080600101915050610469565b508091505092915050565b60008183106104c8576104c382846104db565b6104d3565b6104d283836104db565b5b905092915050565b600082600052816020526040600020905092915050565b600080fd5b600080fd5b6000819050919050565b61050f816104fc565b811461051a57600080fd5b50565b60008135905061052c81610506565b92915050565b600073ffffffffffffffffffffffffffffffffffffffff82169050919050565b600061055d82610532565b9050919050565b61056d81610552565b811461057857600080fd5b50565b60008135905061058a81610564565b92915050565b600080fd5b600080fd5b600080fd5b60008083601f8401126105b5576105b4610590565b5b8235905067ffffffffffffffff8111156105d2576105d1610595565b5b6020830191508360208202830111156105ee576105ed61059a565b5b9250929050565b600080600080600060808688031215610611576106106104f2565b5b600061061f8882890161051d565b95505060206106308882890161057b565b94505060406106418882890161051d565b935050606086013567ffffffffffffffff811115610662576106616104f7565b5b61066e8882890161059f565b92509250509295509295909350565b6000819050919050565b6106908161067d565b82525050565b60006020820190506106ab6000830184610687565b92915050565b6000602082840312156106c7576106c66104f2565b5b60006106d58482850161051d565b91505092915050565b60008115159050919050565b6106f3816106de565b82525050565b600060208201905061070e60008301846106ea565b92915050565b61071d81610552565b82525050565b60006020820190506107386000830184610714565b92915050565b600082825260208201905092915050565b7f416c726561647920636c61696d65640000000000000000000000000000000000600082015250565b6000610785600f8361073e565b91506107908261074f565b602082019050919050565b600060208201905081810360008301526107b481610778565b9050919050565b6107c4816104fc565b82525050565b60006060820190506107df60008301866107bb565b6107ec6020830185610714565b6107f960408301846107bb565b949350505050565b6000819050919050565b61081c6108178261067d565b610801565b82525050565b600061082e828461080b565b60208201915081905092915050565b7f496e76616c6964204d65726b6c652050726f6f66000000000000000000000000600082015250565b600061087360148361073e565b915061087e8261083d565b602082019050919050565b600060208201905081810360008301526108a281610866565b9050919050565b60006040820190506108be6000830185610714565b6108cb60208301846107bb565b9392505050565b6108db816106de565b81146108e657600080fd5b50565b6000815190506108f8816108d2565b92915050565b600060208284031215610914576109136104f2565b5b6000610922848285016108e9565b91505092915050565b7f546f6b656e207472616e73666572206661696c65640000000000000000000000600082015250565b600061096160158361073e565b915061096c8261092b565b602082019050919050565b6000602082019050818103600083015261099081610954565b9050919050565b60006020820190506109ac60008301846107bb565b92915050565b7f4e487b7100000000000000000000000000000000000000000000000000000000600052601260045260246000fd5b60006109ec826104fc565b91506109f7836104fc565b925082610a0757610a066109b2565b5b828204905092915050565b6000610a1d826104fc565b9150610a28836104fc565b925082610a3857610a376109b2565b5b828206905092915050565b7f4e487b7100000000000000000000000000000000000000000000000000000000600052603260045260246000fdfea26469706673582212208f70781494860c5c3011372e9850f3884b11dca6ea4f35b0b6f548090220637764736f6c634300081c0033",
  "linkReferences": {},
  "deployedLinkReferences": {}
}